:020000040040BA
:10000000102F4020AD134000A9134000A913400059
:10001000A9134000A9134000A913400000000000EC
:10002000000000000000000000000000A9134000D4
:10003000A913400000000000A9134000CD0D4000AE
:10004000A9134000A9134000A9134000A9134000C0
:10005000A9134000A9134000A9134000A9134000B0
:10006000A9134000000000006D1140008111400004
:1000700095114000A9134000A9134000A9134000A6
:10008000A9114000BD114000A9134000A913400070
:10009000A9134000A9134000A9134000A913400070
:1000A000A9134000A9134000A9134000A913400060
:1000B000A9134000A9134000A9134000A913400050
:1000C000A9134000A9134000A9134000A913400040
:1000D000000000003105400000000000A9134000AE
:1000E000A9134000A9134000A9134000A913400020
:1000F000A9134000A9134000A9134000A913400010
:10010000A9134000A9134000A9134000A9134000FF
:10011000A9134000A91340000000000000000000E7
:10012000A9134000A9134000A9134000A9134000DF
:10013000A913400000000000A9134000A9134000CB
:1001400010B5054C237833B9044B13B10448AFF311
:1001500000800123237010BD4C04402000000000EB
:10016000981740000C4B43B10C480D4910B5AFF344
:1001700000800C48036823B910BD0A48036833B9EE
:100180007047094B002BF7D0BDE810401847064BCD
:10019000002BF5D0184700BF000000009817400062
:1001A00050044020981740000000000008B5084B9C
:1001B0009847084B9847084B9847084B984708487A
:1001C000084B9847084B9847084CA047FDE700BFED
:1001D000B10E4000210F40000903400031074000EC
:1001E00000004020F10C40003D0D40006D0D40002E
:1001F0007047000008B5014B984708BDB90440009E
:1002000070477047704700000C4A13780133DBB227
:100210001370052B00D07047094BDB6B13F4007F84
:1002200007D04FF40072064B5A630022034B1A703A
:10023000F1E74FF40072024B1A63F6E768044020BE
:1002400000120E4010B584B0002300934FF4080351
:100250000193009C114B03EA804020430090019BD6
:1002600062F31343019342B10B4602A8114413F801
:10027000014B00F8014B8B42F9D1094C0022694631
:100280002046084B984723689A6912F0020F02D162
:100290000122C3F8D02004B010BD00BF0000FC1F35
:1002A00070044020910B400010B584B000230093EF
:1002B0004FF408030193009B43F0804320F060401B
:1002C00003430093019B62F31343019342B10B4636
:1002D00002A8114413F8014B00F8014B8B42F9D1ED
:1002E000074C002269462046064B984723689A69C6
:1002F00012F0020F02D10122C3F8D02004B010BDC9
:1003000070044020910B40002DE9F0438BB05E4813
:100310005E490022D3B200F8013F803B01F8013F63
:100320000132082AF6D100248DF808408DF80940E2
:1003300001268DF80A608DF80B608DF80C608DF841
:100340000D608DF80E408DF80F408DF810404FF67F
:10035000FF73ADF812308DF814408DF815408DF80C
:1003600016408DF8174002278DF818708DF8197017
:100370008DF81A608DF81B606FF0604307938DF85D
:1003800020608DF821408DF822608DF823408DF893
:1003900024408DF825403E4D02AA3E4928463E4B5A
:1003A000984728463D4B98473D4B2022C3F884216F
:1003B00083F825235A602A68536D43F0C44353657C
:1003C000DFF8EC80CDF80080009B67F30A03009310
:1003D000009B40F25A4262F31A430093009B43F0A1
:1003E00060530AAF47F8283D224639462846DFF8D1
:1003F000C490C8472A68536D43F400235365CDF871
:100400000080009B40F2694262F31A430093324637
:1004100039462846C8472A68536D334353654FF021
:100420008049CDF800906FF0C048CDF80480009B63
:100430001C4A62F31C030093009B43F0604300934B
:10044000019B66F31C030193224639462846164C4D
:10045000A0472A68536D43F400235365CDF80090FC
:10046000CDF80480009B114A62F31C0300933246CE
:1004700039462846A0472A68536D43F01003536558
:100480000BB0BDE8F08300BFA7044020AF044020BC
:100490007004402000400340A1074000E1094000F3
:1004A00000E100E0A5000010490A4000960000109D
:1004B000FF0700880D0A400008B5164B1B78032B78
:1004C00009D8DFE803F00210171D0422124940F298
:1004D0005A40124B98470F4B1B78042B16D0013310
:1004E0000C4A137008BD04220D4940F269400B4BC1
:1004F0009847F0E7082208490A480B4B9847EAE773
:10050000082207490948084B9847E4E70022014BB5
:100510001A7008BD69044020A8044020450240002C
:10052000B0044020A5000010A90240009600001071
:1005300070B584B0734B1B681A6D0392039A12F462
:10054000002F5BD04FF400221A6500230293029B18
:100550000F2B53D86B4D6C4C6C4E31E02A68D2F89F
:100560009C10203B012202FA03F30B4214BF1346F6
:10057000002332E02968D1F89C00203B012202FAD6
:1005800003F30343C1F89C30019A21462846B04743
:100590002368002302936368C3F30343029A9342E0
:1005A00008D9029B013302936368C3F30343029AA1
:1005B0009342F6D8029B01330293029B0F2B1DD866
:1005C000029B1F2BCAD82A68D2F89810012202FA7F
:1005D00003F30B4214BF13460023002BEAD0029B07
:1005E0000193029B1F2BC5D82968D1F898000122DE
:1005F00002FA03F30343C1F89830C5E7039B13F0F5
:10060000010F1BD1039B13F0100F44D1039B13F078
:10061000007F6DD1039B13F0005F04D0394B1B6842
:100620004FF000521A65039B13F0804F04D0354BF6
:100630001B684FF080421A6504B070BD314D2B68C5
:1006400001221A65324C226832492846324B9847BB
:1006500023682A6803F03F03C2F8A83023680133F7
:1006600023602368102B13D000230293294B5B686F
:10067000C3F30343029A9342C4D92649029B013330
:1006800002934B68C3F30343029A9342F6D8B9E747
:1006900000222260E8E71B4D2B6810221A651F4CD0
:1006A00022681F4928461F4B984723682A6803F091
:1006B0003F03C2F8A8302368013323602368102B5E
:1006C00013D000230293164B5B68C3F30343029AD3
:1006D00093429BD91249029B013302934B68C3F3A7
:1006E0000343029A9342F6D890E700222260E8E79B
:1006F000044803684FF000721A650B4B98470B4B88
:10070000984787E77004402074044020950A400011
:10071000A404402084044020E90A40006C044020E6
:10072000940440203D0B4000F709400009034000BD
:1007300010B50E20074B9847074C084A0849204639
:10074000084B98472046084B98472046074B984748
:1007500010BD00BFF11240000080024080D1F008BF
:1007600058174000910C4000E50C4000EB0C400095
:1007700008B50368074A934203D0074A934204D05E
:1007800008BD2320054B984708BD2520034B9847FB
:10079000F6E700BF0000034000400340F1124000B4
:1007A00070B506460C46154601600520754B984706
:1007B00090210520744B98470520744B984730468C
:1007C000734B9847A36943F00203A361714B9C42AA
:1007D00000F09080704B9C4200F0B0800023C4F881
:1007E000BC30C4F8C8306D4BE361AB7B1B0603F033
:1007F000F8536B4A1A43E26062696B781343636192
:10080000AB781BB1A36943F48043A3616B791BB937
:10081000A36943F04003A361AB791BB1A36943F023
:100820001003A3612B7A1B0403F4702343F001032C
:1008300023622B7B6A7B13436A8943EA0243A362E8
:100840002B7C1B0103F030036A7C920002F00C0247
:100850001343C4F88030AB7C2BB1D4F8803043F024
:100860000203C4F88030EB7C2BB1D4F8803043F025
:100870000103C4F880306B69C4F890302B7E2BB133
:10088000D4F8A03043F00043C4F8A030D4F8A0203E
:100890006B7E1B0603F0FE431343C4F8A030AB7E0F
:1008A0002BB1D4F8B03043F00043C4F8B030D4F8E2
:1008B000B020EB7E1B0603F0FE431343C4F8B030B8
:1008C0002B7F2BB1D4F8C03043F08043C4F8C03044
:1008D000D4F8F0206B7F1B0603F07C531343C4F85D
:1008E000F0300323E3654FF0FF33C4F8E030C4F881
:1008F000E43070BD2B4A42F40012C3F884202A4A27
:1009000042F48012C3F88820284A42F48012C3F8C7
:10091000A020274A42F48012C3F8B020254A42F4AE
:100920008012C3F8AC20244A24490A43C3F8C020EB
:10093000234A42F40022C3F8F0204FE7214A42F450
:100940000012C3F88420204A42F48012C3F88820A1
:100950001E4A42F48012C3F8A0201D4A42F48012BD
:10096000C3F8B0201B4A42F48012C3F8AC20124AEC
:1009700019490A43C3F8C020184A42F40022C3F8B8
:10098000F0202BE7951340004513400081134000F1
:10099000710740000000034000400340730A02005A
:1009A000330A850038084020B8054020380640202A
:1009B00038074020B804402000000404B808402054
:1009C00038094020F80C4020780A4020F80A4020DE
:1009D000F80B402078094020780D4020F80D402089
:1009E0000268936923F0010393610268936913F02D
:1009F000010FFBD170470268936943F001039361D3
:100A00000268936913F0010FFBD0704703680A482E
:100A1000834208D0094883420BD10968084B43F848
:100A20002210002070470968064B43F8221000206E
:100A300070476FF00700704700000340004003401C
:100A4000F80C40203808402000680E4B98420CD02B
:100A50000D4B984213D108680C4B43F8320049689B
:100A600003EBC2035960002070470868084B43F845
:100A70003200496803EBC2035960002070476FF0F1
:100A8000070070470000034000400340780A402000
:100A9000B805402030B40D4603680F498B420DD095
:100AA0000E498B4214D10E4C04EB02140FCC28607B
:100AB0006960AA60EB60002030BC7047094C04EB11
:100AC00002140FCC28606960AA60EB600020F3E795
:100AD0006FF00700F0E700BF000003400040034054
:100AE00078094020B804402030B40D4603680F490F
:100AF0008B420DD00E498B4214D10E4C04EB0214E4
:100B00000FCC28606960AA60EB60002030BC7047A1
:100B1000094C04EB02140FCC28606960AA60EB60FA
:100B20000020F3E76FF00700F0E700BF000003408C
:100B300000400340F80A40203806402030B40D46FB
:100B400003680F498B420DD00E498B4214D10E4CD5
:100B500004EB02140FCC28606960AA60EB600020EF
:100B600030BC7047094C04EB02140FCC286069605C
:100B7000AA60EB600020F3E76FF00700F0E700BF2A
:100B80000000034000400340F80B4020380740209D
:100B900010B403681948834218D01948834229D1F8
:100BA0000C6818481201831884504C685C6001F18D
:100BB000080307320244103113F8010B02F8010F49
:100BC0008B42F9D100205DF8044B70470C680E4849
:100BD0001201831884504C685C6001F108030732ED
:100BE0000244103113F8010B02F8010F8B42F9D1C6
:100BF0000020E8E76FF00700E5E700BF00000340D2
:100C000000400340780D4020B808402010B40B018C
:100C1000934214D9C9004B0803EBC202B2FBF1F2B4
:100C2000D3085C1E4FF6FE718C4201D9012017E0FB
:100C3000416841F4002141600CE0012010E05908B6
:100C400001EBC202B2FBF3F2D3085C1E4FF6FE7159
:100C50008C42F2D8120402F4E0221A43026200200D
:100C60005DF8044B70470000084BC0F8E4300023E7
:100C700043604362836288230360242303604FF44C
:100C8000807303604FF400230360704700415355A5
:100C900070B505460C4616460F4B984700220F4B81
:100CA0001A60A4B13246216828460D4B9847024687
:100CB00078B96368A1680B4321690B43E1680B4372
:100CC00006490B6069680B436B60104670BD0122DA
:100CD000FBE70122F9E700BF690C4000380E402015
:100CE0000D0C4000402303607047102303607047E1
:100CF00000230B4A13700B4A13700B4A13700B4AF4
:100D000013700B4A13700B4A1370021F0A4B1430F6
:100D100052F8041F596008338242F9D1704700BF6E
:100D2000E40E4020E50E4020AF0E4020AC0E4020E7
:100D3000B00E4020AD0E4020B40E4020074B084AB4
:100D40005A60E021074A82F8231000229A600722A5
:100D50001A600122044B1A70704700BF10E000E0D7
:100D6000EF49020000ED00E0AD0E40202DE9F84310
:100D7000124C04F13006124FDFF84890DFF848803B
:100D80000BE06A783B789A4212D00123AB7055236E
:100D900088F800300834B4420ED025462378012B61
:100DA000F8D1002323706368002BEAD09847E8E766
:100DB000002389F80030EDE7BDE8F883B40E402049
:100DC000E40E4020E50E4020AD0E4020324A13785C
:100DD0000133DBB2137013F0010F1DD02F490A78D5
:100DE0000132D2B20A70632A12D906212C4A11703C
:100DF00000212A4A11702B4A82F82930012382F8F7
:100E00002830284B244A12785A7001221A707047F1
:100E10000122234B1A70F4E713F0020F1DD0224970
:100E20000A780132D2B20A70182A12D905211C4A56
:100E3000117000211C4A11701A4A82F821300123D6
:100E400082F82030174B01221A72134A12785A7214
:100E500070470222124B1A70F4E713F0030F16D1F9
:100E600012490A780132D2B20A70042A10D9042138
:100E70000B4A117000210D4A11700A4A5376012362
:100E80001376084B01221A74034A12785A74704779
:100E90000322034B1A70F4E7E40E4020B00E40200A
:100EA000E50E4020B40E4020AC0E4020AF0E402096
:100EB00010B51048104B98473E2100200F4B984723
:100EC0000F4CA0470028FCD00E4B98470E4A0F4B02
:100ED0009A620F4CA0470028FCD002200D4B984787
:100EE00000200D4B98470D4B98470248024B9847FE
:100EF00010BD00BF00A3E111751540006D12400048
:100F0000C1124000D1124000013F182000060E40DF
:100F1000E1124000D1114000091240006914400064
:100F200038B54FF40042724B5A60A3F54563714ADD
:100F30005A60A2F580725A60BFF34F8FBFF36F8F74
:100F40006D4BD3F8902222F00102C3F89022D3F81F
:100F5000942222F00102C3F89422BFF34F8FBFF313
:100F60006F8F0A20654CA0470B20A0470C20A0479C
:100F70001020A0471120A047614B4FF400021A61D6
:100F8000C3F8A0201A635F4A4FF400711161C2F8E0
:100F9000A01011635961C3F8A0105966C3F89010EE
:100FA00059651962C3F88410186F20F4007018672F
:100FB000586F20F400705867C3F8C010C3F8D410FD
:100FC000C3F8B0104FF400111966C3F890105965BA
:100FD0005962C3F88010186F20F400101867586F1A
:100FE00020F40010586759604749D1F8143143F094
:100FF0001003C1F81431454B10211966C3F8901045
:1010000059655962C3F88010186F08431867586F04
:1010100008435867596008211966C3F8901059654C
:101020005962C3F88010186F20F008001867586FD5
:1010300020F008005867596004211966C3F8901021
:1010400059655962C3F88010186F20F004001867C2
:10105000586F20F00400586759602D4C0120206122
:10106000C4F8A00002212161C4F8A0104FF48054FC
:101070001466C2F8904054655462C2F88040156FFF
:1010800025F480551567556F2543556754604FF417
:1010900080441466C2F8904054655462C2F880409F
:1010A000156F25F480451567556F254355675460C6
:1010B0001866C3F8900058655862C3F880001A6F2C
:1010C00022F001021A675A6F02435A675860196684
:1010D000C3F8901059655962C3F880101A6F22F056
:1010E00002021A675A6F0A435A67596038BD00BF37
:1010F00050180E400C08005A00ED00E0F1124000BC
:10110000000E0E4000120E400080084000100E40FD
:1011100000160E40C06C7047806C70472DE9F0419E
:10112000044688460E4B9847054620460D4B984787
:10113000054013D00C4C04F1600603E0B4420DD01E
:1011400010345DB120684045F8D161682942F5D07E
:10115000E3689847636825EA0305EFE7BDE8F08197
:1011600015114000191140003C0E402008B50A211D
:101170000148024B984708BD000E0E401D1140006B
:1011800008B50B210148024B984708BD00100E40DE
:101190001D11400008B50C210148024B984708BDBD
:1011A00000120E401D11400008B510210148024BED
:1011B000984708BD00140E401D11400008B51121CC
:1011C0000148024B984708BD00160E401D11400013
:1011D000032811D0042812D002280CBF4FF48071CC
:1011E0000021084A136B23F440730B431363936E7F
:1011F00013F0080FFBD070474FF44071F1E74FF444
:101200000071EEE700060E40174A136B23F07003DF
:1012100018431063936E13F0080F0AD14FF4006364
:1012200011498A6E12F0080F03D1013BF9D1012058
:1012300070470D4A136B23F0030343F0020313635B
:10124000936E13F0080F0AD14FF4006306498A6EBB
:1012500012F0080F05D1013BF9D1012070470020A1
:1012600070470020704700BF00060E40A0B90E482E
:10127000036A090289B20D4A1A400D4B1343194300
:1012800001620246936E13F0010FFBD0064A116A09
:10129000084B0B431362704703490B6A064A1A4016
:1012A000064B13430B62704700060E40FCFFC8FF5D
:1012B0000100370000003701FCFFC8FE02003701C3
:1012C000024B986E00F48030704700BF00060E405D
:1012D0004FF00052014B9A62704700BF00060E406B
:1012E000024B986E00F00200704700BF00060E40EF
:1012F0003F281ED81F280CD8114B9A690123834020
:10130000934318D0012303FA00F00D4B186100201D
:10131000704720380A4BD3F80821012383409343B8
:101320000BD0012303FA00F0054BC3F800010020A5
:10133000704701207047002070470020704700BFB1
:1013400000060E4041F002010C4B00F1100243F880
:1013500022109A6E4FF4807303FA00F0024209D112
:101360004FF4006305498A6E024205D1013BFAD170
:1013700001207047002070470020704700060E4093
:101380004FF4807303FA00F0014B1860704700BF00
:1013900000060E404FF4807303FA00F0014B5860D2
:1013A000704700BF00060E40FEE7000008B5234B63
:1013B000234A9A4210D0234B204A9A420CD2013B36
:1013C0009B1A23F00303043313441D4951F8040B03
:1013D00042F8040B9A42F9D11B4B1C4A9A420AD29A
:1013E000013B9B1A23F0030304331344002142F80A
:1013F000041B9342FBD1164A164B23F07F039360E4
:10140000EFF3108372B6BFF35F8F0021124A1170A1
:1014100012490A6842F470020A60BFF34F8FBFF3AB
:101420006F8F2BB901220C4B1A70BFF35F8F62B61E
:101430000B4B98470B4B9847FEE700BF000040203E
:10144000981740004C0440200C0F40204C044020D2
:1014500000ED00E0000040001800402088ED00E0B2
:10146000E9154000AD0140003B4B1B6B03F003034B
:10147000012B1DD083B1022B36D0374B1B6B03F0F1
:101480007003702B5FD0344B1A6B3449C2F30212D5
:101490000B68D3400B607047314B5B6913F0800FD2
:1014A00014BF4FF400424FF4FA422C4B1A60E4E7A9
:1014B000294B1B6A13F0807F03D02A4A274B1A60FE
:1014C000DBE7294A254B1A60234B1B6A03F07003A4
:1014D000102B05D0202BD0D1224A204B1A60CCE70C
:1014E000224A1E4B1A60C8E71B4B1B6A13F0807F11
:1014F00016D01C4A194B1A60174B1B6B03F00303E1
:10150000022BBAD1144A916A926A1448C1F30A4173
:10151000036801FB0333D2B2B3FBF2F30360ACE721
:10152000114A0E4B1A600C4B1B6A03F07003102B10
:1015300005D0202BE0D10B4A084B1A60DCE70B4AA0
:10154000064B1A60D8E7054A13680949A1FB031343
:101550005B081360704700BF00060E401C0040206F
:1015600010180E40001BB70000093D0000127A0061
:10157000ABAAAAAA124B984211D9124B984213D97E
:10158000114B984214D9114B984215D9104B9842DF
:1015900094BF4FF004220F4A0F4B1A6070474FF070
:1015A00080620D4B1A6070470C4A0B4B1A607047F3
:1015B0000B4A094B1A6070470A4A074B1A6070477A
:1015C000FF2C3101FF596202FF869303FFB3C4046D
:1015D000FFE0F50500050004000C0E4000010004CA
:1015E000000200040003000470B50F4E0F4D761B7F
:1015F000B61018BF002405D0013455F8043B9847B5
:10160000A642F9D10A4E0B4D761B00F0B3F8B61086
:1016100018BF002406D0013455F8043B9847A64271
:10162000F9D170BD70BD00BF801740008017400029
:101630008817400080174000024B13B1024800F0A9
:1016400005B870470000000059164000002301460D
:101650001A46184600F01EB838B50A4C0A4D641BED
:10166000A4100AD004F18043013B05EB8305013C43
:1016700055F804399847002CF9D1BDE8384000F0FE
:1016800083B800BF9817400094174000704700BF10
:10169000704700BF2DE9F8432C4D06462868984650
:1016A0000F469146FFF7F2FF294B1C68D4F84831EA
:1016B000002B3ED05A681F2A1CDC02F1010E76B1C5
:1016C00003EB82010124C1F88890D3F8880194408B
:1016D0002043022EC3F88801C1F8088123D00232CA
:1016E000C3F804E0286843F82270FFF7D1FF002018
:1016F000BDE8F883174B0BB34FF4C870AFF300800D
:101700000346D8B1D4F848210260002141600A465E
:10171000C4F848014FF0010EC0F88811C0F88C11D0
:10172000002EDCD0CCE7D3F88C110C43C3F88C41ED
:10173000D5E704F5A673C4F84831BBE72868FFF77E
:10174000A7FF4FF0FF30BDE8F88300BF48044020FA
:10175000701740000000000000C20100C00000003F
:101760000008000000000000000000000000000071
:1017700020004020F8B500BFF8BC08BC9E4670476A
:101780003916400065014000F8B500BFF8BC08BC40
:081790009E4670474101400034
:10179800F1014000F5014000010240000302400051
:1017A80005024000090240000100000000093D0058
:1017B800000000000C03402074034020DC0340209C
:1017C8000000000000000000000000000000000011
:1017D8000000000000000000000000000000000001
:1017E80000000000000000000000000000000000F1
:1017F80000000000000000000000000000000000E1
:1018080000000000000000000000000000000000D0
:1018180000000000000000000000000000000000C0
:1018280000000000000000000000000000000000B0
:1018380000000000000000000000000000000000A0
:101848000000000000000000000000000000000090
:10185800000000000000000001000000000000007F
:101868000E33CDAB34126DE6ECDE05000B00000044
:101878000000000000000000000000000000000060
:101888000000000000000000000000000000000050
:101898000000000000000000000000000000000040
:1018A8000000000000000000000000000000000030
:0C1BD8000000000000000000E80E4020AB
:04000005004013ADF7
:00000001FF
